{
  "contractName": "Grape",
  "abi": [
    {
      "constant": true,
      "inputs": [
        {
          "name": "_saleStartTime",
          "type": "uint256"
        }
      ],
      "name": "checkStartSaleTime",
      "outputs": [
        {
          "name": "_isBeforeSaleTime",
          "type": "bool"
        }
      ],
      "payable": false,
      "stateMutability": "view",
      "type": "function"
    },
    {
      "constant": true,
      "inputs": [
        {
          "name": "_saleEndTime",
          "type": "uint256"
        }
      ],
      "name": "checkEndSaleTime",
      "outputs": [
        {
          "name": "_isAfterSaleTime",
          "type": "bool"
        }
      ],
      "payable": false,
      "stateMutability": "view",
      "type": "function"
    },
    {
      "constant": true,
      "inputs": [
        {
          "name": "_saleStartTime",
          "type": "uint256"
        },
        {
          "name": "_saleEndTime",
          "type": "uint256"
        }
      ],
      "name": "canOnlySaleWithinSaleTime",
      "outputs": [
        {
          "name": "isCorrectRequest",
          "type": "bool"
        }
      ],
      "payable": false,
      "stateMutability": "view",
      "type": "function"
    },
    {
      "constant": false,
      "inputs": [
        {
          "name": "_saleStartTime",
          "type": "uint256"
        },
        {
          "name": "_saleEndTime",
          "type": "uint256"
        },
        {
          "name": "_ticketTypeCounts",
          "type": "uint256"
        },
        {
          "name": "_ticketName",
          "type": "string[]"
        },
        {
          "name": "_ticketPrice",
          "type": "uint256[]"
        },
        {
          "name": "_ticketDescription",
          "type": "string[]"
        },
        {
          "name": "_ticketAmount",
          "type": "uint256[]"
        },
        {
          "name": "_isTransferable",
          "type": "bool[]"
        }
      ],
      "name": "createConcert",
      "outputs": [],
      "payable": true,
      "stateMutability": "payable",
      "type": "function"
    },
    {
      "constant": false,
      "inputs": [
        {
          "name": "_concertId",
          "type": "uint256"
        },
        {
          "name": "_ticketType",
          "type": "uint256"
        }
      ],
      "name": "payTicket",
      "outputs": [],
      "payable": true,
      "stateMutability": "payable",
      "type": "function"
    },
    {
      "constant": true,
      "inputs": [
        {
          "name": "concertId",
          "type": "uint256"
        }
      ],
      "name": "viewConcert",
      "outputs": [
        {
          "name": "_ticketTypeCounts",
          "type": "uint256"
        },
        {
          "name": "_ticketHighPrice",
          "type": "uint256"
        },
        {
          "name": "_ticketLowPrice",
          "type": "uint256"
        },
        {
          "name": "_ticketAmount",
          "type": "uint256"
        }
      ],
      "payable": false,
      "stateMutability": "view",
      "type": "function"
    },
    {
      "constant": true,
      "inputs": [
        {
          "name": "concertId",
          "type": "uint256"
        },
        {
          "name": "ticketType",
          "type": "uint256"
        }
      ],
      "name": "viewConcertTicketType",
      "outputs": [
        {
          "name": "_ticketName",
          "type": "string"
        },
        {
          "name": "_ticketPrice",
          "type": "uint256"
        },
        {
          "name": "_ticketDescription",
          "type": "string"
        },
        {
          "name": "_ticketAmount",
          "type": "uint256"
        },
        {
          "name": "_isTransferable",
          "type": "bool"
        }
      ],
      "payable": false,
      "stateMutability": "view",
      "type": "function"
    },
    {
      "constant": true,
      "inputs": [
        {
          "name": "concertId",
          "type": "uint256"
        }
      ],
      "name": "viewMyTicket",
      "outputs": [
        {
          "name": "_concertId",
          "type": "uint256"
        },
        {
          "name": "_ticketId",
          "type": "uint256"
        },
        {
          "name": "_date",
          "type": "uint256"
        },
        {
          "name": "_price",
          "type": "uint256"
        },
        {
          "name": "_isTransfer",
          "type": "bool"
        },
        {
          "name": "_ticketHistoryCount",
          "type": "uint256"
        }
      ],
      "payable": false,
      "stateMutability": "view",
      "type": "function"
    },
    {
      "constant": true,
      "inputs": [
        {
          "name": "concertId",
          "type": "uint256"
        },
        {
          "name": "ticketId",
          "type": "uint256"
        },
        {
          "name": "historyIndex",
          "type": "uint256"
        }
      ],
      "name": "viewMyTicketHistory",
      "outputs": [
        {
          "name": "_date",
          "type": "uint256"
        },
        {
          "name": "_beforeOwnerAddress",
          "type": "address"
        },
        {
          "name": "_afterOwnerAddress",
          "type": "address"
        },
        {
          "name": "_afterOwnerName",
          "type": "string"
        },
        {
          "name": "_price",
          "type": "uint256"
        }
      ],
      "payable": false,
      "stateMutability": "view",
      "type": "function"
    },
    {
      "constant": false,
      "inputs": [
        {
          "name": "_concertId",
          "type": "uint256"
        },
        {
          "name": "_ticketType",
          "type": "uint256"
        }
      ],
      "name": "buyUsedTicket",
      "outputs": [
        {
          "name": "_isSearch",
          "type": "bool"
        }
      ],
      "payable": true,
      "stateMutability": "payable",
      "type": "function"
    },
    {
      "constant": false,
      "inputs": [
        {
          "name": "_concertId",
          "type": "uint256"
        },
        {
          "name": "_ticketType",
          "type": "uint256"
        }
      ],
      "name": "sellUsedTicket",
      "outputs": [],
      "payable": true,
      "stateMutability": "payable",
      "type": "function"
    },
    {
      "constant": false,
      "inputs": [
        {
          "name": "_concertId",
          "type": "uint256"
        },
        {
          "name": "_ticketType",
          "type": "uint256"
        }
      ],
      "name": "cancleSellUsedTicket",
      "outputs": [],
      "payable": true,
      "stateMutability": "payable",
      "type": "function"
    }
  ],
  "bytecode": "0x608060405260008055600060015534801561001957600080fd5b5061209b806100296000396000f3006080604052600436106100ba576000357c0100000000000000000000000000000000000000000000000000000000900463ffffffff16806307fdafec146100bf578063107c7ce0146101005780631d9370201461013d5780633225ff011461017a57806351d80e2a146101bb5780635e09f30a146101fb578063848a4dc5146102175780638dad280d146102595780639cc1623614610275578063c964fba214610291578063cec67233146102c1578063d0d2e818146102dd575b600080fd5b3480156100cb57600080fd5b506100e660048036036100e19190810190611a4d565b61031a565b6040516100f7959493929190611d25565b60405180910390f35b34801561010c57600080fd5b5061012760048036036101229190810190611a4d565b610520565b6040516101349190611d0a565b60405180910390f35b34801561014957600080fd5b50610164600480360361015f9190810190611a24565b6105c0565b6040516101719190611d0a565b60405180910390f35b34801561018657600080fd5b506101a1600480360361019c9190810190611a89565b6105dd565b6040516101b2959493929190611de6565b60405180910390f35b3480156101c757600080fd5b506101e260048036036101dd9190810190611a24565b61068c565b6040516101f29493929190611e40565b60405180910390f35b61021560048036036102109190810190611a4d565b6107de565b005b34801561022357600080fd5b5061023e60048036036102399190810190611a24565b6109d3565b60405161025096959493929190611e85565b60405180910390f35b610273600480360361026e9190810190611a4d565b610b22565b005b61028f600480360361028a9190810190611ad8565b610d18565b005b6102ab60048036036102a69190810190611a4d565b610f1f565b6040516102b89190611d0a565b60405180910390f35b6102db60048036036102d69190810190611a4d565b6112da565b005b3480156102e957600080fd5b5061030460048036036102ff9190810190611a24565b611555565b6040516103119190611d0a565b60405180910390f35b6060600060606000806000600260008981526020019081526020016000209050806005018781548110151561034b57fe5b906000526020600020018054600181600116156101000203166002900480601f0160208091040260200160405190810160405280929190818152602001828054600181600116156101000203166002900480156103e95780601f106103be576101008083540402835291602001916103e9565b820191906000526020600020905b8154815290600101906020018083116103cc57829003601f168201915b50505050509550806006018781548110151561040157fe5b90600052602060002001549450806007018781548110151561041f57fe5b906000526020600020018054600181600116156101000203166002900480601f0160208091040260200160405190810160405280929190818152602001828054600181600116156101000203166002900480156104bd5780601f10610492576101008083540402835291602001916104bd565b820191906000526020600020905b8154815290600101906020018083116104a057829003601f168201915b5050505050935080600801878154811015156104d557fe5b9060005260206000200154925080600901878154811015156104f357fe5b90600052602060002090602091828204019190069054906101000a900460ff169150509295509295909350565b600061052b83611555565b151561056c576040517f08c379a000000000000000000000000000000000000000000000000000000000815260040161056390611dc6565b60405180910390fd5b610575826105c0565b15156105b6576040517f08c379a00000000000000000000000000000000000000000000000000000000081526004016105ad90611da6565b60405180910390fd5b6001905092915050565b6000428211156105d357600190506105d8565b600090505b919050565b60008060006060600080600260008a8152602001908152602001600020600b01600089815260200190815260200160002060070160008881526020019081526020016000209050806000015495508060010160009054906101000a900473ffffffffffffffffffffffffffffffffffffffff1694508060020160009054906101000a900473ffffffffffffffffffffffffffffffffffffffff1693508060030154915050939792965093509350565b6000806000806000806000806000600260008b815260200190815260200160002094508460060160008154811015156106c157fe5b906000526020600020015493508460060160008154811015156106e057fe5b9060005260206000200154925060009150600085600401541415156107c257600090505b84600401548110156107c157846006018181548110151561072157fe5b906000526020600020015484101561075257846006018181548110151561074457fe5b906000526020600020015493505b846006018181548110151561076357fe5b906000526020600020015483111561079457846006018181548110151561078657fe5b906000526020600020015492505b84600801818154811015156107a557fe5b9060005260206000200154820191508080600101915050610704565b5b8460040154985083975082965081955050505050509193509193565b60008090505b60026000848152602001908152602001600020600a01548110156109ce573373ffffffffffffffffffffffffffffffffffffffff1660026000858152602001908152602001600020600b01600083815260200190815260200160002060010160009054906101000a900473ffffffffffffffffffffffffffffffffffffffff1673ffffffffffffffffffffffffffffffffffffffff161480156108bb575060026000848152602001908152602001600020600b01600082815260200190815260200160002060050160009054906101000a900460ff165b156109c1576002600084815260200190815260200160002060010160009054906101000a900473ffffffffffffffffffffffffffffffffffffffff1673ffffffffffffffffffffffffffffffffffffffff166108fc600a6001600260008881526020019081526020016000206006018681548110151561093757fe5b90600052602060002001540281151561094c57fe5b049081150290604051600060405180830381858888f19350505050158015610978573d6000803e3d6000fd5b50600060026000858152602001908152602001600020600b01600083815260200190815260200160002060050160006101000a81548160ff0219169083151502179055506109ce565b80806001019150506107e4565b505050565b600080600080600080600080600260008a81526020019081526020016000209150600090505b81600a01548160ff161015610b175781600b0160008260ff16815260200190815260200160002060010160009054906101000a900473ffffffffffffffffffffffffffffffffffffffff1673ffffffffffffffffffffffffffffffffffffffff163373ffffffffffffffffffffffffffffffffffffffff161415610b0a578897508060ff16965081600b0160008260ff16815260200190815260200160002060030154955081600b0160008260ff16815260200190815260200160002060040154945081600b0160008260ff16815260200190815260200160002060050160009054906101000a900460ff16935081600b0160008260ff168152602001908152602001600020600601549250610b17565b80806001019150506109f9565b505091939550919395565b60008090505b60026000848152602001908152602001600020600a0154811015610d13573373ffffffffffffffffffffffffffffffffffffffff1660026000858152602001908152602001600020600b01600083815260200190815260200160002060010160009054906101000a900473ffffffffffffffffffffffffffffffffffffffff1673ffffffffffffffffffffffffffffffffffffffff16148015610c00575060026000848152602001908152602001600020600b01600082815260200190815260200160002060050160009054906101000a900460ff16155b15610d06576002600084815260200190815260200160002060010160009054906101000a900473ffffffffffffffffffffffffffffffffffffffff1673ffffffffffffffffffffffffffffffffffffffff166108fc600a60016002600088815260200190815260200160002060060186815481101515610c7c57fe5b906000526020600020015402811515610c9157fe5b049081150290604051600060405180830381858888f19350505050158015610cbd573d6000803e3d6000fd5b50600160026000858152602001908152602001600020600b01600083815260200190815260200160002060050160006101000a81548160ff021916908315150217905550610d13565b8080600101915050610b28565b505050565b60007350e2ceb9b439b7ce7b346be2cae87a8b38b98e9b90508073ffffffffffffffffffffffffffffffffffffffff166108fc60149081150290604051600060405180830381858888f19350505050158015610d78573d6000803e3d6000fd5b506101606040519081016040528060005481526020013373ffffffffffffffffffffffffffffffffffffffff1681526020018a8152602001898152602001888152602001878152602001868152602001858152602001848152602001838152602001600081525060026000805481526020019081526020016000206000820151816000015560208201518160010160006101000a81548173ffffffffffffffffffffffffffffffffffffffff021916908373ffffffffffffffffffffffffffffffffffffffff16021790555060408201518160020155606082015181600301556080820151816004015560a0820151816005019080519060200190610e7e92919061158a565b5060c0820151816006019080519060200190610e9b9291906115ea565b5060e0820151816007019080519060200190610eb892919061158a565b50610100820151816008019080519060200190610ed69291906115ea565b50610120820151816009019080519060200190610ef4929190611637565b5061014082015181600a01559050506000808154809291906001019190505550505050505050505050565b60008060008060009250600091505b60026000878152602001908152602001600020600a01548210156112ce5760026000878152602001908152602001600020600b0160008381526020019081526020016000209050848160020154148015610f9657508060050160009054906101000a900460ff165b156112c157600192508060010160009054906101000a900473ffffffffffffffffffffffffffffffffffffffff1673ffffffffffffffffffffffffffffffffffffffff166108fc600260008981526020019081526020016000206006018781548110151561100057fe5b90600052602060002001549081150290604051600060405180830381858888f19350505050158015611036573d6000803e3d6000fd5b506002600087815260200190815260200160002060010160009054906101000a900473ffffffffffffffffffffffffffffffffffffffff1673ffffffffffffffffffffffffffffffffffffffff166108fc600a6001600260008b8152602001908152602001600020600601898154811015156110ae57fe5b9060005260206000200154028115156110c357fe5b049081150290604051600060405180830381858888f193505050501580156110ef573d6000803e3d6000fd5b5060008160050160006101000a81548160ff0219169083151502179055504281600701600083600601548152602001908152602001600020600001819055508060010160009054906101000a900473ffffffffffffffffffffffffffffffffffffffff168160070160008360060154815260200190815260200160002060010160006101000a81548173ffffffffffffffffffffffffffffffffffffffff021916908373ffffffffffffffffffffffffffffffffffffffff160217905550338160070160008360060154815260200190815260200160002060020160006101000a81548173ffffffffffffffffffffffffffffffffffffffff021916908373ffffffffffffffffffffffffffffffffffffffff160217905550600a600b600260008981526020019081526020016000206006018781548110151561122f57fe5b90600052602060002001540281151561124457fe5b0481600701600083600601548152602001908152602001600020600301819055508060060160008154809291906001019190505550338160010160006101000a81548173ffffffffffffffffffffffffffffffffffffffff021916908373ffffffffffffffffffffffffffffffffffffffff1602179055506112ce565b8180600101925050610f2e565b82935050505092915050565b600080600060026000868152602001908152602001600020925061130683600201548460030154610520565b151561131157600080fd5b6000836008018581548110151561132457fe5b9060005260206000200154111515611371576040517f08c379a000000000000000000000000000000000000000000000000000000000815260040161136890611d86565b60405180910390fd5b8260010160009054906101000a900473ffffffffffffffffffffffffffffffffffffffff16915082600601848154811015156113a957fe5b906000526020600020015490508173ffffffffffffffffffffffffffffffffffffffff166108fc829081150290604051600060405180830381858888f193505050501580156113fc573d6000803e3d6000fd5b5060e0604051908101604052808681526020013373ffffffffffffffffffffffffffffffffffffffff168152602001858152602001428152602001828152602001600015158152602001600081525083600b01600085600a015481526020019081526020016000206000820151816000015560208201518160010160006101000a81548173ffffffffffffffffffffffffffffffffffffffff021916908373ffffffffffffffffffffffffffffffffffffffff16021790555060408201518160020155606082015181600301556080820151816004015560a08201518160050160006101000a81548160ff02191690831515021790555060c08201518160060155905050600183600a01540183600a01819055506001836008018581548110151561152357fe5b906000526020600020015403836008018581548110151561154057fe5b90600052602060002001819055505050505050565b600080821415156115775742821015156115725760019050611585565b611580565b60019050611585565b600090505b919050565b8280548282559060005260206000209081019282156115d9579160200282015b828111156115d85782518290805190602001906115c89291906116dd565b50916020019190600101906115aa565b5b5090506115e6919061175d565b5090565b828054828255906000526020600020908101928215611626579160200282015b8281111561162557825182559160200191906001019061160a565b5b5090506116339190611789565b5090565b82805482825590600052602060002090601f016020900481019282156116cc5791602002820160005b8382111561169d57835183826101000a81548160ff0219169083151502179055509260200192600101602081600001049283019260010302611660565b80156116ca5782816101000a81549060ff021916905560010160208160000104928301926001030261169d565b505b5090506116d991906117ae565b5090565b828054600181600116156101000203166002900490600052602060002090601f016020900481019282601f1061171e57805160ff191683800117855561174c565b8280016001018555821561174c579182015b8281111561174b578251825591602001919060010190611730565b5b5090506117599190611789565b5090565b61178691905b80821115611782576000818161177991906117de565b50600101611763565b5090565b90565b6117ab91905b808211156117a757600081600090555060010161178f565b5090565b90565b6117db91905b808211156117d757600081816101000a81549060ff0219169055506001016117b4565b5090565b90565b50805460018160011615610100020316600290046000825580601f106118045750611823565b601f0160209004906000526020600020908101906118229190611789565b5b50565b600082601f830112151561183957600080fd5b813561184c61184782611f13565b611ee6565b9150818183526020840193506020810190508385602084028201111561187157600080fd5b60005b838110156118a1578161188788826119a6565b845260208401935060208301925050600181019050611874565b5050505092915050565b600082601f83011215156118be57600080fd5b81356118d16118cc82611f3b565b611ee6565b9150818183526020840193506020810190508360005b8381101561191757813586016118fd88826119ba565b8452602084019350602083019250506001810190506118e7565b5050505092915050565b600082601f830112151561193457600080fd5b813561194761194282611f63565b611ee6565b9150818183526020840193506020810190508385602084028201111561196c57600080fd5b60005b8381101561199c57816119828882611a10565b84526020840193506020830192505060018101905061196f565b5050505092915050565b60006119b28235611ff8565b905092915050565b600082601f83011215156119cd57600080fd5b81356119e06119db82611f8b565b611ee6565b915080825260208301602083018583830111156119fc57600080fd5b611a0783828461200e565b50505092915050565b6000611a1c8235612004565b905092915050565b600060208284031215611a3657600080fd5b6000611a4484828501611a10565b91505092915050565b60008060408385031215611a6057600080fd5b6000611a6e85828601611a10565b9250506020611a7f85828601611a10565b9150509250929050565b600080600060608486031215611a9e57600080fd5b6000611aac86828701611a10565b9350506020611abd86828701611a10565b9250506040611ace86828701611a10565b9150509250925092565b600080600080600080600080610100898b031215611af557600080fd5b6000611b038b828c01611a10565b9850506020611b148b828c01611a10565b9750506040611b258b828c01611a10565b965050606089013567ffffffffffffffff811115611b4257600080fd5b611b4e8b828c016118ab565b955050608089013567ffffffffffffffff811115611b6b57600080fd5b611b778b828c01611921565b94505060a089013567ffffffffffffffff811115611b9457600080fd5b611ba08b828c016118ab565b93505060c089013567ffffffffffffffff811115611bbd57600080fd5b611bc98b828c01611921565b92505060e089013567ffffffffffffffff811115611be657600080fd5b611bf28b828c01611826565b9150509295985092959890939650565b611c0b81611fc2565b82525050565b611c1a81611fe2565b82525050565b6000611c2b82611fb7565b808452611c3f81602086016020860161201d565b611c4881612050565b602085010191505092915050565b6000600e82527f4e6f206d6f7265205469636b65740000000000000000000000000000000000006020830152604082019050919050565b6000600c82527f456e642053616c6554696d6500000000000000000000000000000000000000006020830152604082019050919050565b6000600e82527f4265666f652053616c6554696d650000000000000000000000000000000000006020830152604082019050919050565b611d0481611fee565b82525050565b6000602082019050611d1f6000830184611c11565b92915050565b600060a0820190508181036000830152611d3f8188611c20565b9050611d4e6020830187611cfb565b8181036040830152611d608186611c20565b9050611d6f6060830185611cfb565b611d7c6080830184611c11565b9695505050505050565b60006020820190508181036000830152611d9f81611c56565b9050919050565b60006020820190508181036000830152611dbf81611c8d565b9050919050565b60006020820190508181036000830152611ddf81611cc4565b9050919050565b600060a082019050611dfb6000830188611cfb565b611e086020830187611c02565b611e156040830186611c02565b8181036060830152611e278185611c20565b9050611e366080830184611cfb565b9695505050505050565b6000608082019050611e556000830187611cfb565b611e626020830186611cfb565b611e6f6040830185611cfb565b611e7c6060830184611cfb565b95945050505050565b600060c082019050611e9a6000830189611cfb565b611ea76020830188611cfb565b611eb46040830187611cfb565b611ec16060830186611cfb565b611ece6080830185611c11565b611edb60a0830184611cfb565b979650505050505050565b6000604051905081810181811067ffffffffffffffff82111715611f0957600080fd5b8060405250919050565b600067ffffffffffffffff821115611f2a57600080fd5b602082029050602081019050919050565b600067ffffffffffffffff821115611f5257600080fd5b602082029050602081019050919050565b600067ffffffffffffffff821115611f7a57600080fd5b602082029050602081019050919050565b600067ffffffffffffffff821115611fa257600080fd5b601f19601f8301169050602081019050919050565b600081519050919050565b600073ffffffffffffffffffffffffffffffffffffffff82169050919050565b60008115159050919050565b6000819050919050565b60008115159050919050565b6000819050919050565b82818337600083830152505050565b60005b8381101561203b578082015181840152602081019050612020565b8381111561204a576000848401525b50505050565b6000601f19601f83011690509190505600a265627a7a7230582013bc5b370dad1799f794f81ef8afd08a7e2ad96cbd96748daaad0b48a0607cfb6c6578706572696d656e74616cf50037",
  "source": "pragma solidity ^0.4.23;\npragma experimental ABIEncoderV2;\n\ncontract Grape {\n    uint256 concertCount = 0;\n    uint256 ticketBuyerListCount = 0;\n    \n    modifier isOwner(address user) {\n        require(msg.sender == user, \"Authorization Failed\");\n        _;\n    }\n\n    modifier isAuction(uint256 _ticketId, uint256 _concertId) {\n        Concert checkConcert = concertList[_concertId];\n        require(checkConcert.isTransferable[checkConcert.ticketList[_ticketId].ticketType] == true, \"Not Auction\");\n        _;\n    }\n\n    function checkStartSaleTime (uint256 _saleStartTime)\n    public view returns (bool _isBeforeSaleTime) {\n        if (_saleStartTime != 0) {\n            if (_saleStartTime >= block.timestamp) {\n                return true;\n            }\n        } else {\n            return true;\n        }\n        return false;\n    }\n\n    function checkEndSaleTime (uint256 _saleEndTime)\n    public view returns(bool _isAfterSaleTime) {\n        if (_saleEndTime > block.timestamp) {\n            return true;\n        }\n        return false;\n    }\n\n    function canOnlySaleWithinSaleTime (uint256 _saleStartTime, uint256 _saleEndTime)\n    public view returns (bool isCorrectRequest) {\n        require(checkStartSaleTime(_saleStartTime), \"Befoe SaleTime\");\n        require(checkEndSaleTime(_saleEndTime), \"End SaleTime\");\n        return true;\n    }\n\n    struct Concert {\n        uint256 concertId;\n        address creator;\n        uint256 saleStartTime;\n        uint256 saleEndTime;\n        uint256 ticketTypeCounts;\n        string[] ticketName;\n        uint256[] ticketPrice;\n        string[] ticketDescription;\n        uint256[] ticketAmount;\n        bool[] isTransferable;\n        uint256 ticketListCount;\n        mapping (uint256 => Ticket) ticketList;\n        /*\n            concertId -   \n            creator - \n            saleStartTime -  , 0  \n            saleEndTime -  ,      \n            ticketTypeCounts -    \n            ticketName - ()   \n            ticketPrice - ()   \n            ticketDescription - ()    \n            ticketAmount - ()     \n            isTransferable - ()      \n            ticketListCount -      \n            ticketList - (Ticket )      \n        */\n    }\n    \n    mapping (uint256 => Concert) concertList;\n    // Concert  \n    //  concertId   ..?\n    //   \n\n    struct Ticket {\n        uint256 concertId;\n        address owner;\n        uint256 ticketType;\n        uint256 date;\n        uint256 price;\n        bool isTransfer;\n        uint256 ticketHistoryCount;\n        mapping (uint256 => AuctionHistory) transferHistorys;\n        /*\n            concertId -   \n            owner -  \n            ticketType -  ,  \n            date -    (    )\n            price -   (      )\n            ticketHistoryCount -   \n            transferHistorys - ()  \n            isTransfer -      ?\n        */\n    }\n    \n    struct AuctionHistory {\n        uint256 date;\n        address beforeOwnerAddress;\n        address afterOwnerAddress;\n        uint256 price;\n        /*\n            date -  \n            beforeOwnerAddress -    \n            afterOwnerAddress -    \n            price -  \n        */\n    }\n\n    function createConcert(\n        uint256 _saleStartTime,\n        uint256 _saleEndTime,\n        uint256 _ticketTypeCounts,\n        string[] _ticketName,\n        uint256[] _ticketPrice,\n        string[] _ticketDescription,\n        uint256[] _ticketAmount,\n        bool[] _isTransferable\n    ) \n    public payable {\n        address foundation = 0x50e2CeB9B439b7CE7B346BE2Cae87a8B38B98e9B;\n        foundation.transfer(20);\n        concertList[concertCount] = (\n            Concert(\n                concertCount,\n                msg.sender,\n                _saleStartTime,\n                _saleEndTime,\n                _ticketTypeCounts,\n                _ticketName,\n                _ticketPrice,\n                _ticketDescription,\n                _ticketAmount,\n                _isTransferable,\n                0\n            )\n        );\n        concertCount++;\n    }\n\n    function payTicket(\n        uint256 _concertId,\n        uint256 _ticketType\n    ) \n    public payable {\n        Concert _selectConcert = concertList[_concertId];\n        require(canOnlySaleWithinSaleTime(_selectConcert.saleStartTime, _selectConcert.saleEndTime));\n        require(_selectConcert.ticketAmount[_ticketType] > 0, \"No more Ticket\");\n        address _creator = _selectConcert.creator;\n        uint256 _price = _selectConcert.ticketPrice[_ticketType];\n        _creator.transfer(_price);\n        _selectConcert.ticketList[_selectConcert.ticketListCount] = Ticket(\n            _concertId,\n            msg.sender,\n            _ticketType,\n            block.timestamp,\n            _price,\n            false,\n            0\n        );\n        _selectConcert.ticketListCount = _selectConcert.ticketListCount + 1;\n        _selectConcert.ticketAmount[_ticketType] = _selectConcert.ticketAmount[_ticketType] - 1;\n    }\n\n    function viewConcert(uint256 concertId) public view returns (\n        uint256 _ticketTypeCounts,\n        uint256 _ticketHighPrice,\n        uint256 _ticketLowPrice,\n        uint256 _ticketAmount\n    ) {\n        Concert selectConcert = concertList[concertId];\n        uint256 tempHighPrice = selectConcert.ticketPrice[0];\n        uint256 tempLowPrice = selectConcert.ticketPrice[0];\n        uint256 tempAmount = 0;\n        if (selectConcert.ticketTypeCounts != 0) {\n            for (uint i = 0; i < selectConcert.ticketTypeCounts; i++) {\n                if (tempHighPrice < selectConcert.ticketPrice[i]) {\n                    tempHighPrice = selectConcert.ticketPrice[i];\n                }\n                if (tempLowPrice > selectConcert.ticketPrice[i]) {\n                    tempLowPrice = selectConcert.ticketPrice[i];\n                }\n                tempAmount = tempAmount+selectConcert.ticketAmount[i];\n            }\n        }\n        _ticketTypeCounts = selectConcert.ticketTypeCounts;\n        _ticketHighPrice = tempHighPrice;\n        _ticketLowPrice = tempLowPrice;\n        _ticketAmount = tempAmount;\n    }\n\n    function viewConcertTicketType(uint256 concertId, uint256 ticketType) public view returns (\n        string _ticketName,\n        uint256 _ticketPrice,\n        string _ticketDescription,\n        uint256 _ticketAmount,\n        bool _isTransferable\n    ) {\n        Concert selectConcert = concertList[concertId];\n        _ticketName = selectConcert.ticketName[ticketType];\n        _ticketPrice = selectConcert.ticketPrice[ticketType];\n        _ticketDescription = selectConcert.ticketDescription[ticketType];\n        _ticketAmount = selectConcert.ticketAmount[ticketType];\n        _isTransferable = selectConcert.isTransferable[ticketType];\n    }\n\n    function viewMyTicket(uint256 concertId) public view returns(\n        uint256 _concertId,\n        uint256 _ticketId,\n        uint256 _date,\n        uint256 _price,\n        bool _isTransfer,\n        uint256 _ticketHistoryCount\n    ) {\n        Concert selectConcert = concertList[concertId];\n        for (var index = 0; index < selectConcert.ticketListCount; index++) {\n            if (msg.sender == selectConcert.ticketList[index].owner) {\n                _concertId = concertId;\n                _ticketId = index;\n                _date = selectConcert.ticketList[index].date;\n                _price = selectConcert.ticketList[index].price;\n                _isTransfer = selectConcert.ticketList[index].isTransfer;\n                _ticketHistoryCount = selectConcert.ticketList[index].ticketHistoryCount;\n                break;\n            }\n        }\n    }\n\n    function viewMyTicketHistory(uint256 concertId, uint256 ticketId, uint256 historyIndex)\n    public view returns (\n        uint256 _date,\n        address _beforeOwnerAddress,\n        address _afterOwnerAddress,\n        string _afterOwnerName,\n        uint256 _price\n    ) {\n        AuctionHistory selectTicketHistory = concertList[concertId].ticketList[ticketId].transferHistorys[historyIndex];\n        _date = selectTicketHistory.date;\n        _beforeOwnerAddress = selectTicketHistory.beforeOwnerAddress;\n        _afterOwnerAddress = selectTicketHistory.afterOwnerAddress;\n        _price = selectTicketHistory.price;\n    }\n\n    function buyUsedTicket(uint256 _concertId, uint256 _ticketType) public payable\n    returns(\n        bool _isSearch\n    ) {\n        bool isSearch = false;\n        //   \n        for (uint256 i = 0; i < concertList[_concertId].ticketListCount; i++) {\n            Ticket selectTicket = concertList[_concertId].ticketList[i];\n            if (selectTicket.ticketType == _ticketType && selectTicket.isTransfer) {\n                isSearch = true;\n                selectTicket.owner.transfer(concertList[_concertId].ticketPrice[_ticketType]);\n                concertList[_concertId].creator.transfer(concertList[_concertId].ticketPrice[_ticketType] * 1 / 10);\n                selectTicket.isTransfer = false;\n                selectTicket.transferHistorys[selectTicket.ticketHistoryCount].date = block.timestamp;\n                selectTicket.transferHistorys[selectTicket.ticketHistoryCount].beforeOwnerAddress = selectTicket.owner;\n                selectTicket.transferHistorys[selectTicket.ticketHistoryCount].afterOwnerAddress = msg.sender;\n                selectTicket.transferHistorys[selectTicket.ticketHistoryCount].price = concertList[_concertId].ticketPrice[_ticketType] * 11 / 10;\n                selectTicket.ticketHistoryCount++;\n                selectTicket.owner = msg.sender;\n                break;\n            }\n        }\n        _isSearch = isSearch;\n    }\n\n    function sellUsedTicket(uint256 _concertId, uint256 _ticketType) public payable {\n        for (uint256 i = 0; i < concertList[_concertId].ticketListCount; i++) {\n            if (concertList[_concertId].ticketList[i].owner == msg.sender && !concertList[_concertId].ticketList[i].isTransfer) {\n                concertList[_concertId].creator.transfer(concertList[_concertId].ticketPrice[_ticketType] * 1 / 10);\n                concertList[_concertId].ticketList[i].isTransfer = true;\n                break;\n            }\n        }\n    }\n\n    function cancleSellUsedTicket(uint256 _concertId, uint256 _ticketType) public payable {\n        for (uint256 i = 0; i < concertList[_concertId].ticketListCount; i++) {\n            if (concertList[_concertId].ticketList[i].owner == msg.sender && concertList[_concertId].ticketList[i].isTransfer) {\n                concertList[_concertId].creator.transfer(concertList[_concertId].ticketPrice[_ticketType] * 1 / 10);\n                concertList[_concertId].ticketList[i].isTransfer = false;\n                break;\n            }\n        }\n    }\n}\n",
  "sourcePath": "/Users/Gwangmin/Documents/grape-web-renewal/contracts/Grape.sol",
  "compiler": {
    "name": "solc",
    "version": "0.4.24+commit.e67f0147.Emscripten.clang"
  },
  "schemaVersion": "2.0.1",
  "updatedAt": "2018-11-11T13:38:18.268Z"
}