{
  "contractName": "Grape",
  "abi": [
    {
      "constant": false,
      "inputs": [
        {
          "name": "_ticketTypeCounts",
          "type": "uint256"
        },
        {
          "name": "_saleStartTime",
          "type": "uint256"
        },
        {
          "name": "_saleEndTime",
          "type": "uint256"
        },
        {
          "name": "_ticketName",
          "type": "string[]"
        },
        {
          "name": "_ticketPrice",
          "type": "uint256[]"
        },
        {
          "name": "_ticketDescription",
          "type": "string[]"
        },
        {
          "name": "_ticketAmount",
          "type": "uint256[]"
        },
        {
          "name": "_isTransferable",
          "type": "bool[]"
        }
      ],
      "name": "createConcert",
      "outputs": [],
      "payable": true,
      "stateMutability": "payable",
      "type": "function"
    },
    {
      "constant": false,
      "inputs": [
        {
          "name": "_concertId",
          "type": "uint256"
        },
        {
          "name": "_ticketType",
          "type": "uint256"
        }
      ],
      "name": "payTicket",
      "outputs": [],
      "payable": true,
      "stateMutability": "payable",
      "type": "function"
    },
    {
      "constant": true,
      "inputs": [
        {
          "name": "_saleStartTime",
          "type": "uint256"
        }
      ],
      "name": "checkStartSaleTime",
      "outputs": [
        {
          "name": "_isBeforeSaleTime",
          "type": "bool"
        }
      ],
      "payable": false,
      "stateMutability": "view",
      "type": "function"
    },
    {
      "constant": true,
      "inputs": [
        {
          "name": "_saleEndTime",
          "type": "uint256"
        }
      ],
      "name": "checkEndSaleTime",
      "outputs": [
        {
          "name": "_isAfterSaleTime",
          "type": "bool"
        }
      ],
      "payable": false,
      "stateMutability": "view",
      "type": "function"
    },
    {
      "constant": true,
      "inputs": [
        {
          "name": "_saleStartTime",
          "type": "uint256"
        },
        {
          "name": "_saleEndTime",
          "type": "uint256"
        }
      ],
      "name": "canOnlySaleWithinSaleTime",
      "outputs": [
        {
          "name": "isCorrectRequest",
          "type": "bool"
        }
      ],
      "payable": false,
      "stateMutability": "view",
      "type": "function"
    }
  ],
  "bytecode": "0x60806040526000805534801561001457600080fd5b50610e64806100246000396000f30060806040526004361061006d576000357c0100000000000000000000000000000000000000000000000000000000900463ffffffff168063107c7ce0146100725780631d937020146100af5780639cc16236146100ec578063cec6723314610108578063d0d2e81814610124575b600080fd5b34801561007e57600080fd5b5061009960048036036100949190810190610aea565b610161565b6040516100a69190610ccd565b60405180910390f35b3480156100bb57600080fd5b506100d660048036036100d19190810190610ac1565b610201565b6040516100e39190610ccd565b60405180910390f35b61010660048036036101019190810190610b26565b61021e565b005b610122600480360361011d9190810190610aea565b610425565b005b34801561013057600080fd5b5061014b60048036036101469190810190610ac1565b6105f2565b6040516101589190610ccd565b60405180910390f35b600061016c836105f2565b15156101ad576040517f08c379a00000000000000000000000000000000000000000000000000000000081526004016101a490610d08565b60405180910390fd5b6101b682610201565b15156101f7576040517f08c379a00000000000000000000000000000000000000000000000000000000081526004016101ee90610ce8565b60405180910390fd5b6001905092915050565b6000428211156102145760019050610219565b600090505b919050565b60007350e2ceb9b439b7ce7b346be2cae87a8b38b98e9b90508073ffffffffffffffffffffffffffffffffffffffff166108fc60149081150290604051600060405180830381858888f1935050505015801561027e573d6000803e3d6000fd5b506101606040519081016040528060005481526020013373ffffffffffffffffffffffffffffffffffffffff1681526020018a8152602001898152602001888152602001878152602001868152602001858152602001848152602001838152602001600081525060016000805481526020019081526020016000206000820151816000015560208201518160010160006101000a81548173ffffffffffffffffffffffffffffffffffffffff021916908373ffffffffffffffffffffffffffffffffffffffff16021790555060408201518160020155606082015181600301556080820151816004015560a0820151816005019080519060200190610384929190610627565b5060c08201518160060190805190602001906103a1929190610687565b5060e08201518160070190805190602001906103be929190610627565b506101008201518160080190805190602001906103dc929190610687565b506101208201518160090190805190602001906103fa9291906106d4565b5061014082015181600a01559050506000808154809291906001019190505550505050505050505050565b600080600060016000868152602001908152602001600020925061045183600301548460040154610161565b151561045c57600080fd5b8260010160009054906101000a900473ffffffffffffffffffffffffffffffffffffffff169150826006018481548110151561049457fe5b906000526020600020015490508173ffffffffffffffffffffffffffffffffffffffff166108fc829081150290604051600060405180830381858888f193505050501580156104e7573d6000803e3d6000fd5b5060e0604051908101604052808681526020013373ffffffffffffffffffffffffffffffffffffffff168152602001858152602001428152602001828152602001600015158152602001600081525083600b01600085600a015481526020019081526020016000206000820151816000015560208201518160010160006101000a81548173ffffffffffffffffffffffffffffffffffffffff021916908373ffffffffffffffffffffffffffffffffffffffff16021790555060408201518160020155606082015181600301556080820151816004015560a08201518160050160006101000a81548160ff02191690831515021790555060c082015181600601559050505050505050565b6000808214151561061457428210151561060f5760019050610622565b61061d565b60019050610622565b600090505b919050565b828054828255906000526020600020908101928215610676579160200282015b8281111561067557825182908051906020019061066592919061077a565b5091602001919060010190610647565b5b50905061068391906107fa565b5090565b8280548282559060005260206000209081019282156106c3579160200282015b828111156106c25782518255916020019190600101906106a7565b5b5090506106d09190610826565b5090565b82805482825590600052602060002090601f016020900481019282156107695791602002820160005b8382111561073a57835183826101000a81548160ff02191690831515021790555092602001926001016020816000010492830192600103026106fd565b80156107675782816101000a81549060ff021916905560010160208160000104928301926001030261073a565b505b509050610776919061084b565b5090565b828054600181600116156101000203166002900490600052602060002090601f016020900481019282601f106107bb57805160ff19168380011785556107e9565b828001600101855582156107e9579182015b828111156107e85782518255916020019190600101906107cd565b5b5090506107f69190610826565b5090565b61082391905b8082111561081f5760008181610816919061087b565b50600101610800565b5090565b90565b61084891905b8082111561084457600081600090555060010161082c565b5090565b90565b61087891905b8082111561087457600081816101000a81549060ff021916905550600101610851565b5090565b90565b50805460018160011615610100020316600290046000825580601f106108a157506108c0565b601f0160209004906000526020600020908101906108bf9190610826565b5b50565b600082601f83011215156108d657600080fd5b81356108e96108e482610d55565b610d28565b9150818183526020840193506020810190508385602084028201111561090e57600080fd5b60005b8381101561093e57816109248882610a43565b845260208401935060208301925050600181019050610911565b5050505092915050565b600082601f830112151561095b57600080fd5b813561096e61096982610d7d565b610d28565b9150818183526020840193506020810190508360005b838110156109b4578135860161099a8882610a57565b845260208401935060208301925050600181019050610984565b5050505092915050565b600082601f83011215156109d157600080fd5b81356109e46109df82610da5565b610d28565b91508181835260208401935060208101905083856020840282011115610a0957600080fd5b60005b83811015610a395781610a1f8882610aad565b845260208401935060208301925050600181019050610a0c565b5050505092915050565b6000610a4f8235610e05565b905092915050565b600082601f8301121515610a6a57600080fd5b8135610a7d610a7882610dcd565b610d28565b91508082526020830160208301858383011115610a9957600080fd5b610aa4838284610e1b565b50505092915050565b6000610ab98235610e11565b905092915050565b600060208284031215610ad357600080fd5b6000610ae184828501610aad565b91505092915050565b60008060408385031215610afd57600080fd5b6000610b0b85828601610aad565b9250506020610b1c85828601610aad565b9150509250929050565b600080600080600080600080610100898b031215610b4357600080fd5b6000610b518b828c01610aad565b9850506020610b628b828c01610aad565b9750506040610b738b828c01610aad565b965050606089013567ffffffffffffffff811115610b9057600080fd5b610b9c8b828c01610948565b955050608089013567ffffffffffffffff811115610bb957600080fd5b610bc58b828c016109be565b94505060a089013567ffffffffffffffff811115610be257600080fd5b610bee8b828c01610948565b93505060c089013567ffffffffffffffff811115610c0b57600080fd5b610c178b828c016109be565b92505060e089013567ffffffffffffffff811115610c3457600080fd5b610c408b828c016108c3565b9150509295985092959890939650565b610c5981610df9565b82525050565b6000600c82527f456e642053616c6554696d6500000000000000000000000000000000000000006020830152604082019050919050565b6000600e82527f4265666f652053616c6554696d650000000000000000000000000000000000006020830152604082019050919050565b6000602082019050610ce26000830184610c50565b92915050565b60006020820190508181036000830152610d0181610c5f565b9050919050565b60006020820190508181036000830152610d2181610c96565b9050919050565b6000604051905081810181811067ffffffffffffffff82111715610d4b57600080fd5b8060405250919050565b600067ffffffffffffffff821115610d6c57600080fd5b602082029050602081019050919050565b600067ffffffffffffffff821115610d9457600080fd5b602082029050602081019050919050565b600067ffffffffffffffff821115610dbc57600080fd5b602082029050602081019050919050565b600067ffffffffffffffff821115610de457600080fd5b601f19601f8301169050602081019050919050565b60008115159050919050565b60008115159050919050565b6000819050919050565b828183376000838301525050505600a265627a7a72305820fb96e15c38962dc4bff10e5ca49ec682168bf23da89fae025c33b6c060979eba6c6578706572696d656e74616cf50037",
  "source": "pragma solidity ^0.4.23;\npragma experimental ABIEncoderV2;\n\ncontract Grape {\n    uint256 concertCount = 0;\n    \n    modifier isOwner(address user) {\n        require(msg.sender == user, \"Authorization Failed\");\n        _;\n    }\n\n    modifier isAuction(uint256 _ticketId, uint256 _concertId) {\n        Concert checkConcert = concertList[_concertId];\n        require(checkConcert.isTransferable[checkConcert.ticketList[_ticketId].ticketType] == true, \"Not Auction\");\n        _;\n    }\n\n    struct Concert {\n        uint256 concertId;\n        address creator;\n        uint256 ticketTypeCounts;\n        uint256 saleStartTime;\n        uint256 saleEndTime;\n        string[] ticketName;\n        uint256[] ticketPrice;\n        string[] ticketDescription;\n        uint256[] ticketAmount;\n        bool[] isTransferable;\n        uint256 ticketListCount;\n        mapping (uint256 => Ticket) ticketList;\n        /*\n            concertId - 콘서트 고유 아이디\n            creator - 개최자\n            saleStartTime - 판매 시작시간, 0이면 바로 시작\n            saleEndTime - 판매 종료시간, 이벤트의 맨 마지막 날로 자동 설정\n            ticketTypeCounts - 티켓 타입이 몇개나 있는지\n            ticketName - (배열) 티켓 타입의 이름\n            ticketPrice - (배열) 티켓 타입의 가격\n            ticketDescription - (배열) 티켓 타입에 대한 설명\n            ticketAmount - (배열) 티켓 타입에 따른 티켓의 갯수\n            isTransferable - (배열) 티켓 타입에 따른 양도 가능 유무\n            ticketListCount - 이 콘서트에 지금 발급된 티켓의 갯수\n            ticketList - (Ticket 배열) 이 콘서트에 지금 발급된 티켓 리스트\n        */\n    }\n    \n    mapping (uint256 => Concert) concertList;\n    // Concert를 리스트로 매핑\n    // 이러면 concertId 없어져도 되지 않나..?\n    // 보고 수정해줘 종현아\n\n    struct Ticket {\n        uint256 concertId;\n        address owner;\n        uint256 ticketType;\n        uint256 date;\n        uint256 price;\n        bool isTransfer;\n        uint256 ticketHistoryCount;\n        mapping (uint256 => AuctionHistory) transferHistorys;\n        /*\n            concertId - 콘서트 고유 아이디\n            owner - 티켓 주인\n            ticketType - 티켓 타입, 숫자로 되어있음\n            date - 티켓 구매 일시 (양도한 티켓일 경우 양도한 날짜)\n            price - 티켓 가격 (양도한 티켓일 경우 양도할 때 산 금액)\n            ticketHistoryCount - 양도를 한 횟수\n            transferHistorys - (배열) 양도한 이력\n            isTransfer - 현재 이 티켓이 양도 신청이 되어있는가?\n        */\n    }\n    \n    struct AuctionHistory {\n        uint256 date;\n        address beforeOwnerAddress;\n        string beforeOwnerName;\n        address afterOwnerAddress;\n        string afterOwnerName;\n        uint256 price;\n        /*\n            date - 양도한 날짜\n            beforeOwnerAddress - 이전 주인의 지갑 주소\n            beforeOwnerName - 이전 주인의 닉네임 (정규화를 해야될까... 싶음)\n            afterOwnerAddress - 양도 후 주인의 지갑수조\n            afterOwnerName - 양도 후 주인의 닉네임\n            price - 구매 가격\n        */\n    }\n\n    struct TicketBuyer {\n        uint256 concertId;\n        uint256 ticketType;\n        address requester;\n        uint256 date;\n        /*\n            concertId - 콘서트 이름\n            ticketType - 콘서트의 티켓 타입\n            requester - 양도 대기 요청한 사람\n            date - 양도 대기 요청한 일자\n        */\n    }\n\n    mapping (uint256 => TicketBuyer) ticketBuyerList;\n\n    function createConcert(\n        uint256 _ticketTypeCounts,\n        uint256 _saleStartTime,\n        uint256 _saleEndTime,\n        string[] _ticketName,\n        uint256[] _ticketPrice,\n        string[] _ticketDescription,\n        uint256[] _ticketAmount,\n        bool[] _isTransferable\n    ) \n    public payable {\n        address foundation = 0x50e2CeB9B439b7CE7B346BE2Cae87a8B38B98e9B;\n        foundation.transfer(20);\n        concertList[concertCount] = (\n            Concert(\n                concertCount,\n                msg.sender,\n                _ticketTypeCounts,\n                _saleStartTime,\n                _saleEndTime,\n                _ticketName,\n                _ticketPrice,\n                _ticketDescription,\n                _ticketAmount,\n                _isTransferable,\n                0\n            )\n        );\n        concertCount++;\n    }\n\n    function payTicket(\n        uint256 _concertId,\n        uint256 _ticketType\n    ) \n    public payable {\n        Concert _selectConcert = concertList[_concertId];\n        require(canOnlySaleWithinSaleTime(_selectConcert.saleStartTime, _selectConcert.saleEndTime));\n        address _creator = _selectConcert.creator;\n        uint256 _price = _selectConcert.ticketPrice[_ticketType];\n        _creator.transfer(_price);\n        _selectConcert.ticketList[_selectConcert.ticketListCount] = Ticket(\n            _concertId,\n            msg.sender,\n            _ticketType,\n            block.timestamp,\n            _price,\n            false,\n            0\n        );\n    }\n\n    function checkStartSaleTime (uint256 _saleStartTime)\n    public view returns (bool _isBeforeSaleTime) {\n        if (_saleStartTime != 0) {\n            if (_saleStartTime >= block.timestamp) {\n                return true;\n            }\n        } else {\n            return true;\n        }\n        return false;\n    }\n\n    function checkEndSaleTime (uint256 _saleEndTime)\n    public view returns(bool _isAfterSaleTime) {\n        if (_saleEndTime > block.timestamp) {\n            return true;\n        }\n        return false;\n    }\n\n    function canOnlySaleWithinSaleTime (uint256 _saleStartTime, uint256 _saleEndTime) public view returns (bool isCorrectRequest) {\n        require(checkStartSaleTime(_saleStartTime), \"Befoe SaleTime\");\n        require(checkEndSaleTime(_saleEndTime), \"End SaleTime\");\n        return true;\n    }\n}",
  "sourcePath": "/Users/Gwangmin/Documents/grape-web-renewal/contracts/Grape.sol",
  "compiler": {
    "name": "solc",
    "version": "0.4.24+commit.e67f0147.Emscripten.clang"
  },
  "schemaVersion": "2.0.1",
  "updatedAt": "2018-11-09T06:12:17.830Z"
}