{
  "contractName": "Grape",
  "abi": [
    {
      "constant": false,
      "inputs": [
        {
          "name": "_saleStartTime",
          "type": "uint256"
        },
        {
          "name": "_saleEndTime",
          "type": "uint256"
        },
        {
          "name": "_ticketTypeCounts",
          "type": "uint256"
        },
        {
          "name": "_ticketName",
          "type": "string[]"
        },
        {
          "name": "_ticketPrice",
          "type": "uint256[]"
        },
        {
          "name": "_ticketDescription",
          "type": "string[]"
        },
        {
          "name": "_ticketAmount",
          "type": "uint256[]"
        },
        {
          "name": "_isTransferable",
          "type": "bool[]"
        }
      ],
      "name": "createConcert",
      "outputs": [],
      "payable": true,
      "stateMutability": "payable",
      "type": "function"
    },
    {
      "constant": false,
      "inputs": [
        {
          "name": "_concertId",
          "type": "uint256"
        },
        {
          "name": "_ticketType",
          "type": "uint256"
        }
      ],
      "name": "payTicket",
      "outputs": [],
      "payable": true,
      "stateMutability": "payable",
      "type": "function"
    },
    {
      "constant": true,
      "inputs": [
        {
          "name": "concertId",
          "type": "uint256"
        }
      ],
      "name": "viewConcert",
      "outputs": [
        {
          "name": "_ticketTypeCounts",
          "type": "uint256"
        },
        {
          "name": "_ticketHighPrice",
          "type": "uint256"
        },
        {
          "name": "_ticketLowPrice",
          "type": "uint256"
        },
        {
          "name": "_ticketAmount",
          "type": "uint256"
        }
      ],
      "payable": false,
      "stateMutability": "view",
      "type": "function"
    },
    {
      "constant": true,
      "inputs": [
        {
          "name": "concertId",
          "type": "uint256"
        },
        {
          "name": "ticketType",
          "type": "uint256"
        }
      ],
      "name": "viewConcertTicketType",
      "outputs": [
        {
          "name": "_ticketName",
          "type": "string"
        },
        {
          "name": "_ticketPrice",
          "type": "uint256"
        },
        {
          "name": "_ticketDescription",
          "type": "string"
        },
        {
          "name": "_ticketAmount",
          "type": "uint256"
        },
        {
          "name": "_isTransferable",
          "type": "bool"
        }
      ],
      "payable": false,
      "stateMutability": "view",
      "type": "function"
    },
    {
      "constant": true,
      "inputs": [
        {
          "name": "concertId",
          "type": "uint256"
        }
      ],
      "name": "viewMyTicket",
      "outputs": [
        {
          "name": "_concertId",
          "type": "uint256"
        },
        {
          "name": "_ticketId",
          "type": "uint256"
        },
        {
          "name": "_date",
          "type": "uint256"
        },
        {
          "name": "_price",
          "type": "uint256"
        },
        {
          "name": "_isTransfer",
          "type": "bool"
        },
        {
          "name": "_ticketHistoryCount",
          "type": "uint256"
        }
      ],
      "payable": false,
      "stateMutability": "view",
      "type": "function"
    },
    {
      "constant": true,
      "inputs": [
        {
          "name": "concertId",
          "type": "uint256"
        },
        {
          "name": "ticketId",
          "type": "uint256"
        },
        {
          "name": "historyIndex",
          "type": "uint256"
        }
      ],
      "name": "viewMyTicketHistory",
      "outputs": [
        {
          "name": "_date",
          "type": "uint256"
        },
        {
          "name": "_beforeOwnerAddress",
          "type": "address"
        },
        {
          "name": "_afterOwnerAddress",
          "type": "address"
        },
        {
          "name": "_afterOwnerName",
          "type": "string"
        },
        {
          "name": "_price",
          "type": "uint256"
        }
      ],
      "payable": false,
      "stateMutability": "view",
      "type": "function"
    },
    {
      "constant": false,
      "inputs": [
        {
          "name": "_concertId",
          "type": "uint256"
        },
        {
          "name": "_ticketType",
          "type": "uint256"
        }
      ],
      "name": "buyUsedTicket",
      "outputs": [
        {
          "name": "_isSearch",
          "type": "bool"
        }
      ],
      "payable": true,
      "stateMutability": "payable",
      "type": "function"
    },
    {
      "constant": false,
      "inputs": [
        {
          "name": "_concertId",
          "type": "uint256"
        },
        {
          "name": "_ticketType",
          "type": "uint256"
        }
      ],
      "name": "sellUsedTicket",
      "outputs": [],
      "payable": true,
      "stateMutability": "payable",
      "type": "function"
    },
    {
      "constant": false,
      "inputs": [
        {
          "name": "_concertId",
          "type": "uint256"
        },
        {
          "name": "_ticketType",
          "type": "uint256"
        }
      ],
      "name": "cancleSellUsedTicket",
      "outputs": [],
      "payable": true,
      "stateMutability": "payable",
      "type": "function"
    }
  ],
  "bytecode": "0x608060405260008055600060015534801561001957600080fd5b50611db0806100296000396000f300608060405260043610610099576000357c0100000000000000000000000000000000000000000000000000000000900463ffffffff16806307fdafec1461009e5780633225ff01146100df57806351d80e2a146101205780635e09f30a14610160578063848a4dc51461017c5780638dad280d146101be5780639cc16236146101da578063c964fba2146101f6578063cec6723314610226575b600080fd5b3480156100aa57600080fd5b506100c560048036036100c09190810190611867565b610242565b6040516100d6959493929190611a9a565b60405180910390f35b3480156100eb57600080fd5b50610106600480360361010191908101906118a3565b610448565b604051610117959493929190611afb565b60405180910390f35b34801561012c57600080fd5b506101476004803603610142919081019061183e565b6104f7565b6040516101579493929190611b55565b60405180910390f35b61017a60048036036101759190810190611867565b610649565b005b34801561018857600080fd5b506101a3600480360361019e919081019061183e565b61083e565b6040516101b596959493929190611b9a565b60405180910390f35b6101d860048036036101d39190810190611867565b61098d565b005b6101f460048036036101ef91908101906118f2565b610b83565b005b610210600480360361020b9190810190611867565b610d8a565b60405161021d9190611a7f565b60405180910390f35b610240600480360361023b9190810190611867565b611145565b005b6060600060606000806000600260008981526020019081526020016000209050806005018781548110151561027357fe5b906000526020600020018054600181600116156101000203166002900480601f0160208091040260200160405190810160405280929190818152602001828054600181600116156101000203166002900480156103115780601f106102e657610100808354040283529160200191610311565b820191906000526020600020905b8154815290600101906020018083116102f457829003601f168201915b50505050509550806006018781548110151561032957fe5b90600052602060002001549450806007018781548110151561034757fe5b906000526020600020018054600181600116156101000203166002900480601f0160208091040260200160405190810160405280929190818152602001828054600181600116156101000203166002900480156103e55780601f106103ba576101008083540402835291602001916103e5565b820191906000526020600020905b8154815290600101906020018083116103c857829003601f168201915b5050505050935080600801878154811015156103fd57fe5b90600052602060002001549250806009018781548110151561041b57fe5b90600052602060002090602091828204019190069054906101000a900460ff169150509295509295909350565b60008060006060600080600260008a8152602001908152602001600020600b01600089815260200190815260200160002060070160008881526020019081526020016000209050806000015495508060010160009054906101000a900473ffffffffffffffffffffffffffffffffffffffff1694508060020160009054906101000a900473ffffffffffffffffffffffffffffffffffffffff1693508060030154915050939792965093509350565b6000806000806000806000806000600260008b8152602001908152602001600020945084600601600081548110151561052c57fe5b9060005260206000200154935084600601600081548110151561054b57fe5b90600052602060002001549250600091506000856004015414151561062d57600090505b846004015481101561062c57846006018181548110151561058c57fe5b90600052602060002001548410156105bd5784600601818154811015156105af57fe5b906000526020600020015493505b84600601818154811015156105ce57fe5b90600052602060002001548311156105ff5784600601818154811015156105f157fe5b906000526020600020015492505b846008018181548110151561061057fe5b906000526020600020015482019150808060010191505061056f565b5b8460040154985083975082965081955050505050509193509193565b60008090505b60026000848152602001908152602001600020600a0154811015610839573373ffffffffffffffffffffffffffffffffffffffff1660026000858152602001908152602001600020600b01600083815260200190815260200160002060010160009054906101000a900473ffffffffffffffffffffffffffffffffffffffff1673ffffffffffffffffffffffffffffffffffffffff16148015610726575060026000848152602001908152602001600020600b01600082815260200190815260200160002060050160009054906101000a900460ff165b1561082c576002600084815260200190815260200160002060010160009054906101000a900473ffffffffffffffffffffffffffffffffffffffff1673ffffffffffffffffffffffffffffffffffffffff166108fc600a600160026000888152602001908152602001600020600601868154811015156107a257fe5b9060005260206000200154028115156107b757fe5b049081150290604051600060405180830381858888f193505050501580156107e3573d6000803e3d6000fd5b50600060026000858152602001908152602001600020600b01600083815260200190815260200160002060050160006101000a81548160ff021916908315150217905550610839565b808060010191505061064f565b505050565b600080600080600080600080600260008a81526020019081526020016000209150600090505b81600a01548160ff1610156109825781600b0160008260ff16815260200190815260200160002060010160009054906101000a900473ffffffffffffffffffffffffffffffffffffffff1673ffffffffffffffffffffffffffffffffffffffff163373ffffffffffffffffffffffffffffffffffffffff161415610975578897508060ff16965081600b0160008260ff16815260200190815260200160002060030154955081600b0160008260ff16815260200190815260200160002060040154945081600b0160008260ff16815260200190815260200160002060050160009054906101000a900460ff16935081600b0160008260ff168152602001908152602001600020600601549250610982565b8080600101915050610864565b505091939550919395565b60008090505b60026000848152602001908152602001600020600a0154811015610b7e573373ffffffffffffffffffffffffffffffffffffffff1660026000858152602001908152602001600020600b01600083815260200190815260200160002060010160009054906101000a900473ffffffffffffffffffffffffffffffffffffffff1673ffffffffffffffffffffffffffffffffffffffff16148015610a6b575060026000848152602001908152602001600020600b01600082815260200190815260200160002060050160009054906101000a900460ff16155b15610b71576002600084815260200190815260200160002060010160009054906101000a900473ffffffffffffffffffffffffffffffffffffffff1673ffffffffffffffffffffffffffffffffffffffff166108fc600a60016002600088815260200190815260200160002060060186815481101515610ae757fe5b906000526020600020015402811515610afc57fe5b049081150290604051600060405180830381858888f19350505050158015610b28573d6000803e3d6000fd5b50600160026000858152602001908152602001600020600b01600083815260200190815260200160002060050160006101000a81548160ff021916908315150217905550610b7e565b8080600101915050610993565b505050565b600073c39b1048d6dd7fb500a2e8f9fffa0ca33cd4db5a90508073ffffffffffffffffffffffffffffffffffffffff166108fc60149081150290604051600060405180830381858888f19350505050158015610be3573d6000803e3d6000fd5b506101606040519081016040528060005481526020013373ffffffffffffffffffffffffffffffffffffffff1681526020018a8152602001898152602001888152602001878152602001868152602001858152602001848152602001838152602001600081525060026000805481526020019081526020016000206000820151816000015560208201518160010160006101000a81548173ffffffffffffffffffffffffffffffffffffffff021916908373ffffffffffffffffffffffffffffffffffffffff16021790555060408201518160020155606082015181600301556080820151816004015560a0820151816005019080519060200190610ce99291906113a4565b5060c0820151816006019080519060200190610d06929190611404565b5060e0820151816007019080519060200190610d239291906113a4565b50610100820151816008019080519060200190610d41929190611404565b50610120820151816009019080519060200190610d5f929190611451565b5061014082015181600a01559050506000808154809291906001019190505550505050505050505050565b60008060008060009250600091505b60026000878152602001908152602001600020600a01548210156111395760026000878152602001908152602001600020600b0160008381526020019081526020016000209050848160020154148015610e0157508060050160009054906101000a900460ff165b1561112c57600192508060010160009054906101000a900473ffffffffffffffffffffffffffffffffffffffff1673ffffffffffffffffffffffffffffffffffffffff166108fc6002600089815260200190815260200160002060060187815481101515610e6b57fe5b90600052602060002001549081150290604051600060405180830381858888f19350505050158015610ea1573d6000803e3d6000fd5b506002600087815260200190815260200160002060010160009054906101000a900473ffffffffffffffffffffffffffffffffffffffff1673ffffffffffffffffffffffffffffffffffffffff166108fc600a6001600260008b815260200190815260200160002060060189815481101515610f1957fe5b906000526020600020015402811515610f2e57fe5b049081150290604051600060405180830381858888f19350505050158015610f5a573d6000803e3d6000fd5b5060008160050160006101000a81548160ff0219169083151502179055504281600701600083600601548152602001908152602001600020600001819055508060010160009054906101000a900473ffffffffffffffffffffffffffffffffffffffff168160070160008360060154815260200190815260200160002060010160006101000a81548173ffffffffffffffffffffffffffffffffffffffff021916908373ffffffffffffffffffffffffffffffffffffffff160217905550338160070160008360060154815260200190815260200160002060020160006101000a81548173ffffffffffffffffffffffffffffffffffffffff021916908373ffffffffffffffffffffffffffffffffffffffff160217905550600a600b600260008981526020019081526020016000206006018781548110151561109a57fe5b9060005260206000200154028115156110af57fe5b0481600701600083600601548152602001908152602001600020600301819055508060060160008154809291906001019190505550338160010160006101000a81548173ffffffffffffffffffffffffffffffffffffffff021916908373ffffffffffffffffffffffffffffffffffffffff160217905550611139565b8180600101925050610d99565b82935050505092915050565b600080600060026000868152602001908152602001600020600201546002600087815260200190815260200160002060030154428210158015611189575060008214155b151561119457600080fd5b6001151542821115151415156111a957600080fd5b6002600088815260200190815260200160002094508460010160009054906101000a900473ffffffffffffffffffffffffffffffffffffffff16935084600601868154811015156111f657fe5b906000526020600020015492508373ffffffffffffffffffffffffffffffffffffffff166108fc849081150290604051600060405180830381858888f19350505050158015611249573d6000803e3d6000fd5b5060e0604051908101604052808881526020013373ffffffffffffffffffffffffffffffffffffffff168152602001878152602001428152602001848152602001600015158152602001600081525085600b01600087600a015481526020019081526020016000206000820151816000015560208201518160010160006101000a81548173ffffffffffffffffffffffffffffffffffffffff021916908373ffffffffffffffffffffffffffffffffffffffff16021790555060408201518160020155606082015181600301556080820151816004015560a08201518160050160006101000a81548160ff02191690831515021790555060c08201518160060155905050600185600a01540185600a01819055506001856008018781548110151561137057fe5b906000526020600020015403856008018781548110151561138d57fe5b906000526020600020018190555050505050505050565b8280548282559060005260206000209081019282156113f3579160200282015b828111156113f25782518290805190602001906113e29291906114f7565b50916020019190600101906113c4565b5b5090506114009190611577565b5090565b828054828255906000526020600020908101928215611440579160200282015b8281111561143f578251825591602001919060010190611424565b5b50905061144d91906115a3565b5090565b82805482825590600052602060002090601f016020900481019282156114e65791602002820160005b838211156114b757835183826101000a81548160ff021916908315150217905550926020019260010160208160000104928301926001030261147a565b80156114e45782816101000a81549060ff02191690556001016020816000010492830192600103026114b7565b505b5090506114f391906115c8565b5090565b828054600181600116156101000203166002900490600052602060002090601f016020900481019282601f1061153857805160ff1916838001178555611566565b82800160010185558215611566579182015b8281111561156557825182559160200191906001019061154a565b5b50905061157391906115a3565b5090565b6115a091905b8082111561159c576000818161159391906115f8565b5060010161157d565b5090565b90565b6115c591905b808211156115c15760008160009055506001016115a9565b5090565b90565b6115f591905b808211156115f157600081816101000a81549060ff0219169055506001016115ce565b5090565b90565b50805460018160011615610100020316600290046000825580601f1061161e575061163d565b601f01602090049060005260206000209081019061163c91906115a3565b5b50565b600082601f830112151561165357600080fd5b813561166661166182611c28565b611bfb565b9150818183526020840193506020810190508385602084028201111561168b57600080fd5b60005b838110156116bb57816116a188826117c0565b84526020840193506020830192505060018101905061168e565b5050505092915050565b600082601f83011215156116d857600080fd5b81356116eb6116e682611c50565b611bfb565b9150818183526020840193506020810190508360005b83811015611731578135860161171788826117d4565b845260208401935060208301925050600181019050611701565b5050505092915050565b600082601f830112151561174e57600080fd5b813561176161175c82611c78565b611bfb565b9150818183526020840193506020810190508385602084028201111561178657600080fd5b60005b838110156117b6578161179c888261182a565b845260208401935060208301925050600181019050611789565b5050505092915050565b60006117cc8235611d0d565b905092915050565b600082601f83011215156117e757600080fd5b81356117fa6117f582611ca0565b611bfb565b9150808252602083016020830185838301111561181657600080fd5b611821838284611d23565b50505092915050565b60006118368235611d19565b905092915050565b60006020828403121561185057600080fd5b600061185e8482850161182a565b91505092915050565b6000806040838503121561187a57600080fd5b60006118888582860161182a565b92505060206118998582860161182a565b9150509250929050565b6000806000606084860312156118b857600080fd5b60006118c68682870161182a565b93505060206118d78682870161182a565b92505060406118e88682870161182a565b9150509250925092565b600080600080600080600080610100898b03121561190f57600080fd5b600061191d8b828c0161182a565b985050602061192e8b828c0161182a565b975050604061193f8b828c0161182a565b965050606089013567ffffffffffffffff81111561195c57600080fd5b6119688b828c016116c5565b955050608089013567ffffffffffffffff81111561198557600080fd5b6119918b828c0161173b565b94505060a089013567ffffffffffffffff8111156119ae57600080fd5b6119ba8b828c016116c5565b93505060c089013567ffffffffffffffff8111156119d757600080fd5b6119e38b828c0161173b565b92505060e089013567ffffffffffffffff811115611a0057600080fd5b611a0c8b828c01611640565b9150509295985092959890939650565b611a2581611cd7565b82525050565b611a3481611cf7565b82525050565b6000611a4582611ccc565b808452611a59816020860160208601611d32565b611a6281611d65565b602085010191505092915050565b611a7981611d03565b82525050565b6000602082019050611a946000830184611a2b565b92915050565b600060a0820190508181036000830152611ab48188611a3a565b9050611ac36020830187611a70565b8181036040830152611ad58186611a3a565b9050611ae46060830185611a70565b611af16080830184611a2b565b9695505050505050565b600060a082019050611b106000830188611a70565b611b1d6020830187611a1c565b611b2a6040830186611a1c565b8181036060830152611b3c8185611a3a565b9050611b4b6080830184611a70565b9695505050505050565b6000608082019050611b6a6000830187611a70565b611b776020830186611a70565b611b846040830185611a70565b611b916060830184611a70565b95945050505050565b600060c082019050611baf6000830189611a70565b611bbc6020830188611a70565b611bc96040830187611a70565b611bd66060830186611a70565b611be36080830185611a2b565b611bf060a0830184611a70565b979650505050505050565b6000604051905081810181811067ffffffffffffffff82111715611c1e57600080fd5b8060405250919050565b600067ffffffffffffffff821115611c3f57600080fd5b602082029050602081019050919050565b600067ffffffffffffffff821115611c6757600080fd5b602082029050602081019050919050565b600067ffffffffffffffff821115611c8f57600080fd5b602082029050602081019050919050565b600067ffffffffffffffff821115611cb757600080fd5b601f19601f8301169050602081019050919050565b600081519050919050565b600073ffffffffffffffffffffffffffffffffffffffff82169050919050565b60008115159050919050565b6000819050919050565b60008115159050919050565b6000819050919050565b82818337600083830152505050565b60005b83811015611d50578082015181840152602081019050611d35565b83811115611d5f576000848401525b50505050565b6000601f19601f83011690509190505600a265627a7a72305820fb45397ca061a519e28c6cdac7fd3dcaff7a6a5976279e3656aec7edfb1877576c6578706572696d656e74616cf50037",
  "source": "pragma solidity ^0.4.23;\npragma experimental ABIEncoderV2;\n\ncontract Grape {\n    uint256 concertCount = 0;\n    uint256 ticketBuyerListCount = 0;\n    \n    modifier isOwner(address user) {\n        require(msg.sender == user, \"Authorization Failed\");\n        _;\n    }\n\n    modifier isAuction(uint256 _ticketId, uint256 _concertId) {\n        Concert checkConcert = concertList[_concertId];\n        require(checkConcert.isTransferable[checkConcert.ticketList[_ticketId].ticketType] == true, \"Not Auction\");\n        _;\n    }\n\n    modifier checkStartSaleTime (uint256 _saleStartTime) {\n        require(_saleStartTime >= block.timestamp && _saleStartTime != 0);\n        _;\n    }\n\n    modifier checkEndSaleTime (uint256 _saleEndTime) {\n        require(_saleEndTime > block.timestamp == true);\n        _;\n    }    \n\n    modifier canOnlySaleWithinSaleTime (uint256 _saleStartTime, uint256 _saleEndTime) {\n        require(_saleStartTime >= block.timestamp && _saleStartTime != 0);\n        require(_saleEndTime > block.timestamp == true);\n        _;\n    }\n\n    struct Concert {\n        uint256 concertId;\n        address creator;\n        uint256 saleStartTime;\n        uint256 saleEndTime;\n        uint256 ticketTypeCounts;\n        string[] ticketName;\n        uint256[] ticketPrice;\n        string[] ticketDescription;\n        uint256[] ticketAmount;\n        bool[] isTransferable;\n        uint256 ticketListCount;\n        mapping (uint256 => Ticket) ticketList;\n        /*\n            concertId -   \n            creator - \n            saleStartTime -  , 0  \n            saleEndTime -  ,      \n            ticketTypeCounts -    \n            ticketName - ()   \n            ticketPrice - ()   \n            ticketDescription - ()    \n            ticketAmount - ()     \n            isTransferable - ()      \n            ticketListCount -      \n            ticketList - (Ticket )      \n        */\n    }\n    \n    mapping (uint256 => Concert) concertList;\n    // Concert  \n    //  concertId   ..?\n    //   \n\n    struct Ticket {\n        uint256 concertId;\n        address owner;\n        uint256 ticketType;\n        uint256 date;\n        uint256 price;\n        bool isTransfer;\n        uint256 ticketHistoryCount;\n        mapping (uint256 => AuctionHistory) transferHistorys;\n        /*\n            concertId -   \n            owner -  \n            ticketType -  ,  \n            date -    (    )\n            price -   (      )\n            ticketHistoryCount -   \n            transferHistorys - ()  \n            isTransfer -      ?\n        */\n    }\n    \n    struct AuctionHistory {\n        uint256 date;\n        address beforeOwnerAddress;\n        address afterOwnerAddress;\n        uint256 price;\n        /*\n            date -  \n            beforeOwnerAddress -    \n            afterOwnerAddress -    \n            price -  \n        */\n    }\n\n    function createConcert(\n        uint256 _saleStartTime,\n        uint256 _saleEndTime,\n        uint256 _ticketTypeCounts,\n        string[] _ticketName,\n        uint256[] _ticketPrice,\n        string[] _ticketDescription,\n        uint256[] _ticketAmount,\n        bool[] _isTransferable\n    ) \n    public payable {\n        address foundation = 0xc39b1048d6dd7fb500a2e8f9fffa0ca33cd4db5a;\n        foundation.transfer(20);\n        concertList[concertCount] = (\n            Concert(\n                concertCount,\n                msg.sender,\n                _saleStartTime,\n                _saleEndTime,\n                _ticketTypeCounts,\n                _ticketName,\n                _ticketPrice,\n                _ticketDescription,\n                _ticketAmount,\n                _isTransferable,\n                0\n            )\n        );\n        concertCount++;\n    }\n\n    function payTicket(\n        uint256 _concertId,\n        uint256 _ticketType\n    ) \n    public payable canOnlySaleWithinSaleTime(concertList[_concertId].saleStartTime,concertList[_concertId].saleEndTime){\n        Concert _selectConcert = concertList[_concertId];        \n        address _creator = _selectConcert.creator;\n        uint256 _price = _selectConcert.ticketPrice[_ticketType];\n        _creator.transfer(_price);\n        _selectConcert.ticketList[_selectConcert.ticketListCount] = Ticket(\n            _concertId,\n            msg.sender,\n            _ticketType,\n            block.timestamp,\n            _price,\n            false,\n            0\n        );\n        _selectConcert.ticketListCount = _selectConcert.ticketListCount + 1;\n        _selectConcert.ticketAmount[_ticketType] = _selectConcert.ticketAmount[_ticketType] - 1;\n    }\n\n    function viewConcert(uint256 concertId) public view returns (\n        uint256 _ticketTypeCounts,\n        uint256 _ticketHighPrice,\n        uint256 _ticketLowPrice,\n        uint256 _ticketAmount\n    ) {\n        Concert selectConcert = concertList[concertId];\n        uint256 tempHighPrice = selectConcert.ticketPrice[0];\n        uint256 tempLowPrice = selectConcert.ticketPrice[0];\n        uint256 tempAmount = 0;\n        if (selectConcert.ticketTypeCounts != 0) {\n            for (uint i = 0; i < selectConcert.ticketTypeCounts; i++) {\n                if (tempHighPrice < selectConcert.ticketPrice[i]) {\n                    tempHighPrice = selectConcert.ticketPrice[i];\n                }\n                if (tempLowPrice > selectConcert.ticketPrice[i]) {\n                    tempLowPrice = selectConcert.ticketPrice[i];\n                }\n                tempAmount = tempAmount+selectConcert.ticketAmount[i];\n            }\n        }\n        _ticketTypeCounts = selectConcert.ticketTypeCounts;\n        _ticketHighPrice = tempHighPrice;\n        _ticketLowPrice = tempLowPrice;\n        _ticketAmount = tempAmount;\n    }\n\n    function viewConcertTicketType(uint256 concertId, uint256 ticketType) public view returns (\n        string _ticketName,\n        uint256 _ticketPrice,\n        string _ticketDescription,\n        uint256 _ticketAmount,\n        bool _isTransferable\n    ) {\n        Concert selectConcert = concertList[concertId];\n        _ticketName = selectConcert.ticketName[ticketType];\n        _ticketPrice = selectConcert.ticketPrice[ticketType];\n        _ticketDescription = selectConcert.ticketDescription[ticketType];\n        _ticketAmount = selectConcert.ticketAmount[ticketType];\n        _isTransferable = selectConcert.isTransferable[ticketType];\n    }\n\n    function viewMyTicket(uint256 concertId) public view returns(\n        uint256 _concertId,\n        uint256 _ticketId,\n        uint256 _date,\n        uint256 _price,\n        bool _isTransfer,\n        uint256 _ticketHistoryCount\n    ) {\n        Concert selectConcert = concertList[concertId];\n        for (var index = 0; index < selectConcert.ticketListCount; index++) {\n            if (msg.sender == selectConcert.ticketList[index].owner) {\n                _concertId = concertId;\n                _ticketId = index;\n                _date = selectConcert.ticketList[index].date;\n                _price = selectConcert.ticketList[index].price;\n                _isTransfer = selectConcert.ticketList[index].isTransfer;\n                _ticketHistoryCount = selectConcert.ticketList[index].ticketHistoryCount;\n                break;\n            }\n        }\n    }\n\n    function viewMyTicketHistory(uint256 concertId, uint256 ticketId, uint256 historyIndex)\n    public view returns (\n        uint256 _date,\n        address _beforeOwnerAddress,\n        address _afterOwnerAddress,\n        string _afterOwnerName,\n        uint256 _price\n    ) {\n        AuctionHistory selectTicketHistory = concertList[concertId].ticketList[ticketId].transferHistorys[historyIndex];\n        _date = selectTicketHistory.date;\n        _beforeOwnerAddress = selectTicketHistory.beforeOwnerAddress;\n        _afterOwnerAddress = selectTicketHistory.afterOwnerAddress;\n        _price = selectTicketHistory.price;\n    }\n\n    function buyUsedTicket(uint256 _concertId, uint256 _ticketType) public payable\n    returns(\n        bool _isSearch\n    ) {\n        bool isSearch = false;\n        //   \n        for (uint256 i = 0; i < concertList[_concertId].ticketListCount; i++) {\n            Ticket selectTicket = concertList[_concertId].ticketList[i];\n            if (selectTicket.ticketType == _ticketType && selectTicket.isTransfer) {\n                isSearch = true;\n                selectTicket.owner.transfer(concertList[_concertId].ticketPrice[_ticketType]);\n                concertList[_concertId].creator.transfer(concertList[_concertId].ticketPrice[_ticketType] * 1 / 10);\n                selectTicket.isTransfer = false;\n                selectTicket.transferHistorys[selectTicket.ticketHistoryCount].date = block.timestamp;\n                selectTicket.transferHistorys[selectTicket.ticketHistoryCount].beforeOwnerAddress = selectTicket.owner;\n                selectTicket.transferHistorys[selectTicket.ticketHistoryCount].afterOwnerAddress = msg.sender;\n                selectTicket.transferHistorys[selectTicket.ticketHistoryCount].price = concertList[_concertId].ticketPrice[_ticketType] * 11 / 10;\n                selectTicket.ticketHistoryCount++;\n                selectTicket.owner = msg.sender;\n                break;\n            }\n        }\n        _isSearch = isSearch;\n    }\n\n    function sellUsedTicket(uint256 _concertId, uint256 _ticketType) public payable {\n        for (uint256 i = 0; i < concertList[_concertId].ticketListCount; i++) {\n            if (concertList[_concertId].ticketList[i].owner == msg.sender && !concertList[_concertId].ticketList[i].isTransfer) {\n                concertList[_concertId].creator.transfer(concertList[_concertId].ticketPrice[_ticketType] * 1 / 10);\n                concertList[_concertId].ticketList[i].isTransfer = true;\n                break;\n            }\n        }\n    }\n\n    function cancleSellUsedTicket(uint256 _concertId, uint256 _ticketType) public payable {\n        for (uint256 i = 0; i < concertList[_concertId].ticketListCount; i++) {\n            if (concertList[_concertId].ticketList[i].owner == msg.sender && concertList[_concertId].ticketList[i].isTransfer) {\n                concertList[_concertId].creator.transfer(concertList[_concertId].ticketPrice[_ticketType] * 1 / 10);\n                concertList[_concertId].ticketList[i].isTransfer = false;\n                break;\n            }\n        }\n    }\n}\n",
  "sourcePath": "/Users/Gwangmin/Documents/grape-web-renewal/contracts/Grape.sol",
  "compiler": {
    "name": "solc",
    "version": "0.4.24+commit.e67f0147.Emscripten.clang"
  },
  "schemaVersion": "2.0.1",
  "updatedAt": "2018-11-17T16:21:02.523Z"
}